:0E0000000C943B000C9400000C9400000C9437
:10000E0000000C9400000C9400000C9400000C9462
:10001E0000000C9400000C9400000C9400000C9452
:10002E0000000C9400000C9400000C9400000C9442
:10003E0000000C9400000C9400000C9400000C9432
:10004E0000000C94000003000000FC60DAF266B6BB
:10005E00BEE0FEF60100020054000200040056004D
:10006E000A00600158000000F894EE27ECBBF1E0A6
:10007E00FBBFEBBFE5BF8DE0A2E0BB27ED938A95FA
:10008E00E9F780E094E0A0E6ED930197E9F7E2E668
:10009E00F0E085919591009761F0A591B59105904D
:1000AE001590BF01F00105900D920197E1F7FB014C
:1000BE00F0CFEFE5EDBFE4E0EEBFC0E6D1E00C948B
:1000CE006800E0E0E7BBEABBE1BBAAE0B0E00E945B
:1000DE00D500EFEFE7BBEABBE1E8E1BB909A979A58
:1000EE00E0E0E8BBEBBB2497EAE0E883E0E0E983DD
:1000FE00EA83EB83809905C0E3E6F0E0E415F505AD
:10010E0009F40EC0A2E0B0E00E94D500809902C0B2
:10011E0020FC01C005C0F20131962F01E89420F8B1
:10012E00809B02C0689420F8879904C000240414B0
:10013E00050409F40EC0A2E0B0E00E94D500879934
:10014E0002C021FC01C005C0F20131972F01E894D5
:10015E0021F8879B02C0689421F8D201EAE0F0E012
:10016E000E94F600EA83FB83D201EAE0F0E00E94EF
:10017E00FB00E883F983EA81FB81E05AFE4FE081C0
:10018E00E8BBE881F981E05AFE4FE081EBBBA1E0CC
:10019E00B0E00E94D5002496A6CFFFCF109639F07E
:1001AE00A89580ED97E00197F1F71197C9F708959B
:1001BE00F195E195F04008950024112490E1AA0FE5
:1001CE00BB1F001C111C0E1A1F0A18F40E0E1F1E48
:1001DE0001C0A1609A9599F7FD01D001089512D042
:1001EE00EBDF0EF4E5DF0895E894B7FF04C0A095A9
:1001FE00B09511966894F7FDDBDFDEDFFD010EF49E
:10020E00D7DF0895E894F7FF02C0D2DF6894B7FFF6
:10021E0006C0A095B095119600F8039400FA0895C3
:00000001FF
