:0C0000000C946D000C9400000C940000A7
:10000C000C9400000C9400000C9400000C94000064
:10001C000C9400000C9400000C9400000C94000054
:10002C000C9400000C9400000C9400000C94000044
:10003C000C9400000C9400000C9400000C94000034
:10004C000C9400000C940000020000000000000062
:10005C0000000000FC60DAF266B6BEE0FEF60102BB
:10006C000400010002000300040005000600070064
:10007C00080009000B00000016000B000B000B0021
:10008C000B000B000B000B000B000B000B00040013
:10009C000000010006000200010003000100030043
:1000AC0005000100020054000A00040056000A007A
:1000BC006001600003006A016A0017006D016E00A8
:1000CC0013008901860013009D019A000000F8942A
:1000DC00EE27ECBBF1E0FBBFEBBFE5BF8DE0A2E090
:1000EC00BB27ED938A95E9F780E094E0A0E6ED93C9
:1000FC000197E9F7EEEAF0E085919591009761F0B0
:10010C00A591B59105901590BF01F00105900D9248
:10011C000197E1F7FB01F0CFEFE5EDBFE4E0EEBFB7
:10012C00C0E6D1E00C949A00E0E0E7BBEABBE4BB8C
:10013C00E1BBE7D0EFEFE7BBEABBE4BBE1BBE0E040
:10014C00E5BBE8BBDED0AA24BB24EAE0F0E0AE16A7
:10015C00BF060CF081C09AD0E0938701F093880120
:10016C00EB30A0E0FA0789F4CC24DD24EAE0F0E0DF
:10017C00CE16DF0634F4C9D0D0D0F60131966F011B
:10018C00F5CFEFEFFFEF5F0161C0E631A0E0FA07BA
:10019C0009F04FC0689421F8CC24DD24EAE0F0E0AB
:1001AC00CE16DF068CF5B1D00D901C90F601ADE9A2
:1001BC00B1E0B8D00E94CA01E015F10509F14394F1
:1001CC00E89421F8E5E0E41581F4B1D0B6D02CF434
:1001DC00BAD0BED0A2D0BFD0F9CFC4D0EFE0E2BB32
:1001EC00C5D0E0E0E2BBC2D0F9CF42BAA0D0A5D0D6
:1001FC002CF4A9D0ADD091D0AED0F9CFB3D004C0EF
:10020C00F60131966F01CACF21FE12C0E0E3E2BBCA
:10021C0085990DC0E0E0E2BB8AD08FD02CF493D04E
:10022C0097D07BD098D0F9CF9DD018D001C0EECF0D
:10023C000EC0F501A9E8B1E0EE0FFF1FEA0FFB1F9E
:10024C00A0918701B0918801A083B18307D08ED093
:10025C00F50131965F0179CF76CFFFCF552451D080
:10026C0066247724EAE0F0E06E167F0674F45BBA3D
:10027C00F3016ED00E94CA01E05AFE4FE081E8BB48
:10028C005394F30131963F01EDCF0895689420F813
:10029C0020FE36C088249924E3E0F0E08E169F06F9
:1002AC0074F5AAE6B1E0A80DB91DEC91E5BB9B9BDA
:1002BC0006C0E89420F8F401ADE6B1E015C09C9BB3
:1002CC0005C0E89420F8A3E7B1E00DC09D9B05C0E4
:1002DC00E89420F8A9E7B1E006C09E9B0CC0E89416
:1002EC0020F8AFE7B1E0F401EE0FFF1FAE0FBF1F18
:1002FC000E94CA010895F40131964F01CDCFC8CFA9
:10030C000895AAE0B0E00C94C001F601A9E8B1E0B0
:10031C00EE0FFF1FAE0FBF1F0895EBE0F0E0ED9363
:10032C00FC930895EE0FFF1FAE0FBF1F0895E0E082
:10033C00E0938501E09386010895A0918501B09129
:10034C0086011A970895E0918501F0918601089530
:10035C00A9E8B1E0E7CFF7DF3196E0938501F093A0
:10036C0086010895EFEFFFEF5F0178CFA2E3B0E0D5
:10037C000C94C001109639F0A89580ED97E0019788
:10038C00F1F71197C9F70895ED91FC911197089524
:00000001FF
