:0E0000000C9460000C9400000C9400000C9412
:10000E0000000C9400000C9400000C9400000C9462
:10001E0000000C9400000C9400000C9400000C9452
:10002E0000000C9400000C9400000C9400000C9442
:10003E0000000C9400000C9400000C9400000C9432
:10004E0000000C9400000000000000000000000002
:10005E000000FC60DAF266B6BEE0FEF601020400B5
:10006E00010002000300040005000600070008005E
:10007E0009000B00000016000B000B000B000B001C
:10008E000B000B000B000B000B000B00010002001D
:10009E0054000900050056000A00600160000300CC
:1000AE006A016A0017006D016E001300850186005B
:1000BE000000F894EE27ECBBF1E0FBBFEBBFE5BF11
:1000CE008DE0A2E0BB27ED938A95E9F780E094E0FE
:1000DE00A0E6ED930197E9F7EAE9F0E085919591B5
:1000EE00009761F0A591B59105901590BF01F001B3
:1000FE0005900D920197E1F7FB01F0CFEFE5EDBF13
:10010E00E4E0EEBFC0E6D1E00C948D00E0E0E7BB8A
:10011E00EABBE4BB91D0EFEFE7BBEABBE4BBE0E0A8
:10012E00E5BBE8BB89D0AA24BB24EAE0F0E0AE161A
:10013E00BF068CF5F50184D0EA0FFB1FFF93EF93FA
:10014E0043D0AF91BF91ED93FC93F50179D07DD063
:10015E00EB30A0E0FA07B1F4CC24DD24EAE0F0E0C5
:10016E00CE16DF067CF4F6016BD0AE0FBF1FEBE0B0
:10017E00F0E0ED93FC93EFEFFFEF5F01F6013196A8
:10018E006F01ECCF0AD0A2E3B0E00E943101F5017D
:10019E0031965F01CACFC7CFFFCF55244DD066240D
:1001AE007724EAE0F0E06E167F066CF45BBAF3019A
:1001BE0047D04BD0E05AFE4FE081E8BB5394F30199
:1001CE0031963F01EECF0895689420F820FE33C09B
:1001DE0088249924E3E0F0E08E169F065CF5AAE6EB
:1001EE00B1E0A80DB91DEC91E5BB9B9B06C0E89450
:1001FE0020F8F401ADE6B1E015C09C9B05C0E89473
:10020E0020F8A3E7B1E00DC09D9B05C0E89420F84F
:10021E00A9E7B1E006C09E9B09C0E89420F8AFE7BD
:10022E00B1E0F401EE0FFF1F10D00895F4013196E6
:10023E004F01D0CFCBCF0895AAE0B0E00C9431019E
:10024E00A5E8B1E0EE0FFF1F0895AE0FBF1F0E948D
:10025E003B010895109639F0A89580ED97E001972F
:10026E00F1F71197C9F70895ED91FC911197089543
:00000001FF
