:0E0000000C9472000C9400000C9400000C9400
:10000E0000000C9400000C9400000C9400000C9462
:10001E0000000C9400000C9400000C9400000C9452
:10002E0000000C9400000C9400000C9400000C9442
:10003E0000000C9400000C9400000C9400000C9432
:10004E0000000C9400000200000000000000000000
:10005E000000FC60DAF266B6BEE0FEF601020400B5
:10006E000001030701000200030004000500060062
:10007E000700080009000B00000016000B000B0023
:10008E000B000B000B000B000B000B000B000B000A
:10009E000400000001000600020001000300010040
:1000AE00030005000100020054000900050056007F
:1000BE000A006001600003006A016A0004006D011D
:1000CE006E0017007101720013008D018A0013007B
:1000DE00A1019E000000F894EE27ECBBF1E0FBBFFF
:1000EE00EBBFE5BF8DE0A2E0BB27ED938A95E9F764
:1000FE0080E094E0A0E6ED930197E9F7E2EBF0E003
:10010E0085919591009761F0A591B5910590159007
:10011E00BF01F00105900D920197E1F7FB01F0CFC1
:10012E00EFE5EDBFE4E0EEBFC0E6D1E00C949F003A
:10013E00E0E0E7BBEABBE4BBE1BBFBD0EFEFE7BB24
:10014E00EABBE4BBE1BBE0E0E5BBE8BBF2D09ED08E
:10015E00AA24BB24EAE0F0E0AE16BF060CF094C071
:10016E00ADD0E0938B01F0938C01EB30A0E0FA0759
:10017E0089F4CC24DD24EAE0F0E0CE16DF0634F478
:10018E00DCD0E3D0F60131966F01F5CFEFEFFFEF44
:10019E005F0174C0E631A0E0FA0709F062C068940E
:1001AE0021F8CC24DD24EAE0F0E0CE16DF060CF0D8
:1001BE0043C0C3D00D901C90F601A1EAB1E0CAD0A5
:1001CE000E94E301E015F10599F1E091B501F0917E
:1001DE00B6013196E093B501F093B601E89421F89B
:1001EE00A091B501B091B601149781F4B8D0BDD0ED
:1001FE002CF4C1D0C5D0A9D0C6D0F9CFCBD0EFE06A
:10020E00E2BBCCD0E0E0E2BBC9D0F9CFE091B501C2
:10021E00F091B601E359FE4FE081E2BBA0D0A5D02C
:10022E002CF4A9D0ADD091D0AED0F9CFB3D004C0BC
:10023E00F60131966F01B7CF21FE12C0E0E3E2BBAB
:10024E0085990DC0E0E0E2BB8AD08FD02CF493D01C
:10025E0097D07BD098D0F9CF9DD018D001C0EECFDB
:10026E000EC0F501ADE8B1E0EE0FFF1FEA0FFB1F68
:10027E00A0918B01B0918C01A083B18307D08ED059
:10028E00F50131965F0166CF63CFFFCF552451D074
:10029E0066247724EAE0F0E06E167F0674F4F3012C
:1002AE006FD00E94E301E05AFE4FE081E8BB5BBADB
:1002BE005394F30131963F01EDCF0895689420F8E1
:1002CE0020FE36C088249924E3E0F0E08E169F06C7
:1002DE0074F5AAE6B1E0A80DB91DEC91E5BB9B9BA8
:1002EE0006C0E89420F8F401A1E7B1E015C09C9B8C
:1002FE0005C0E89420F8A7E7B1E00DC09D9B05C0AE
:10030E00E89420F8ADE7B1E006C09E9B0CC0E894DF
:10031E0020F8A3E8B1E0F401EE0FFF1FAE0FBF1FF0
:10032E000E94E3010895F40131964F01CDCFC8CF5D
:10033E000895AAE0B0E00C94D901F601ADE8B1E061
:10034E00EE0FFF1FAE0FBF1F0895EBE0F0E0ED9331
:10035E00FC930895EE0FFF1FAE0FBF1F0895E0E050
:10036E00E0938901E0938A010895A0918901B091EB
:10037E008A011A970895E0918901F0918A010895F2
:10038E00ADE8B1E0E7CFF7DF3196E0938901F09366
:10039E008A010895EFEFFFEF5F0178CFA2E3B0E09F
:1003AE000C94D901109639F0A89580ED97E001973D
:1003BE00F1F71197C9F70895ED91FC9111970895F2
:00000001FF
